{"abi":[{"type":"constructor","inputs":[{"name":"alignedServiceManager_","type":"address","internalType":"address"},{"name":"paymentServiceAddr_","type":"address","internalType":"address"},{"name":"elfCommitment_","type":"bytes32","internalType":"bytes32"}],"stateMutability":"nonpayable"},{"type":"function","name":"alignedServiceManager","inputs":[],"outputs":[{"name":"","type":"address","internalType":"address"}],"stateMutability":"view"},{"type":"function","name":"candidateA","inputs":[],"outputs":[{"name":"","type":"uint256","internalType":"uint256"}],"stateMutability":"view"},{"type":"function","name":"candidateB","inputs":[],"outputs":[{"name":"","type":"uint256","internalType":"uint256"}],"stateMutability":"view"},{"type":"function","name":"candidateC","inputs":[],"outputs":[{"name":"","type":"uint256","internalType":"uint256"}],"stateMutability":"view"},{"type":"function","name":"elfCommitment","inputs":[],"outputs":[{"name":"","type":"bytes32","internalType":"bytes32"}],"stateMutability":"view"},{"type":"function","name":"hasVoted","inputs":[{"name":"","type":"uint256","internalType":"uint256"}],"outputs":[{"name":"","type":"bool","internalType":"bool"}],"stateMutability":"view"},{"type":"function","name":"paymentServiceAddr","inputs":[],"outputs":[{"name":"","type":"address","internalType":"address"}],"stateMutability":"view"},{"type":"function","name":"submitVote","inputs":[{"name":"proofCommitment","type":"bytes32","internalType":"bytes32"},{"name":"pubInputCommitment","type":"bytes32","internalType":"bytes32"},{"name":"provingSystemAuxDataCommitment","type":"bytes32","internalType":"bytes32"},{"name":"proofGeneratorAddr","type":"bytes20","internalType":"bytes20"},{"name":"batchMerkleRoot","type":"bytes32","internalType":"bytes32"},{"name":"merkleProof","type":"bytes","internalType":"bytes"},{"name":"verificationDataBatchIndex","type":"uint256","internalType":"uint256"},{"name":"pubInputBytes","type":"bytes","internalType":"bytes"}],"outputs":[],"stateMutability":"nonpayable"},{"type":"error","name":"AlreadyVoted","inputs":[]},{"type":"error","name":"InvalidElf","inputs":[{"name":"elfCommitment","type":"bytes32","internalType":"bytes32"}]},{"type":"error","name":"ProofAlreadyUsed","inputs":[{"name":"fullHash","type":"bytes32","internalType":"bytes32"}]},{"type":"error","name":"ProofGeneratorAddrMismatch","inputs":[]},{"type":"error","name":"ProofNotIncludedInBatch","inputs":[]},{"type":"error","name":"PubInputCommitmentMismatch","inputs":[]},{"type":"error","name":"ReclaimProofAlreadyUsed","inputs":[{"name":"reclaimProof","type":"bytes32","internalType":"bytes32"}]},{"type":"error","name":"StaticCallFailed","inputs":[]}],"bytecode":{"object":"0x60e060405234801561001057600080fd5b5060405161085438038061085483398101604081905261002f91610066565b6001600160a01b03928316608052911660a05260c0526100a2565b80516001600160a01b038116811461006157600080fd5b919050565b60008060006060848603121561007b57600080fd5b6100848461004a565b92506100926020850161004a565b9150604084015190509250925092565b60805160a05160c0516107706100e4600039600081816092015261019301526000818160de01526102c2015260008181610165015261029101526107706000f3fe608060405234801561001057600080fd5b50600436106100885760003560e01c8063b46041741161005b578063b460417414610118578063ecca031f1461012d578063f19cd88214610160578063ff0bee6e1461018757600080fd5b80632212d6071461008d5780632da26d42146100c757806354b976d0146100d057806390a05f2e146100d9575b600080fd5b6100b47f000000000000000000000000000000000000000000000000000000000000000081565b6040519081526020015b60405180910390f35b6100b460035481565b6100b460025481565b6101007f000000000000000000000000000000000000000000000000000000000000000081565b6040516001600160a01b0390911681526020016100be565b61012b6101263660046104e8565b610190565b005b61015061013b3660046105a6565b60006020819052908152604090205460ff1681565b60405190151581526020016100be565b6101007f000000000000000000000000000000000000000000000000000000000000000081565b6100b460015481565b857f0000000000000000000000000000000000000000000000000000000000000000146101d75760405163636ca83360e11b81526004810187905260240160405180910390fd5b606085901c33146101fb576040516355007c6160e01b815260040160405180910390fd5b8060405160200161020c91906105e3565b6040516020818303038152906040528051906020012087146102415760405163d8cc96d560e01b815260040160405180910390fd5b60008180602001905181019061025791906105ff565b805160009081526020819052604090205490915060ff161561028c57604051637c9a1cf960e01b815260040160405180910390fd5b6000807f00000000000000000000000000000000000000000000000000000000000000006001600160a01b03168b8b8b8b8b8b8b7f00000000000000000000000000000000000000000000000000000000000000006040516024016102f8989796959493929190610669565b60408051601f198184030181529181526020820180516001600160e01b03166306045a9160e01b1790525161032d91906105e3565b600060405180830381855afa9150503d8060008114610368576040519150601f19603f3d011682016040523d82523d6000602084013e61036d565b606091505b50915091508161039057604051633842fc7360e21b815260040160405180910390fd5b6000818060200190518101906103a691906106ea565b9050806103c657604051635a36999760e11b815260040160405180910390fd5b83516000908152602081815260408220805460ff191660019081179091559086015181549092906103f8908490610713565b9091555050604084015160028054600090610414908490610713565b9091555050606084015160038054600090610430908490610713565b9091555050505050505050505050505050565b634e487b7160e01b600052604160045260246000fd5b600082601f83011261046a57600080fd5b813567ffffffffffffffff81111561048457610484610443565b604051601f8201601f19908116603f0116810167ffffffffffffffff811182821017156104b3576104b3610443565b6040528181528382016020018510156104cb57600080fd5b816020850160208301376000918101602001919091529392505050565b600080600080600080600080610100898b03121561050557600080fd5b88359750602089013596506040890135955060608901356bffffffffffffffffffffffff198116811461053757600080fd5b94506080890135935060a089013567ffffffffffffffff81111561055a57600080fd5b6105668b828c01610459565b93505060c0890135915060e089013567ffffffffffffffff81111561058a57600080fd5b6105968b828c01610459565b9150509295985092959890939650565b6000602082840312156105b857600080fd5b5035919050565b60005b838110156105da5781810151838201526020016105c2565b50506000910152565b600082516105f58184602087016105bf565b9190910192915050565b6000608082840312801561061257600080fd5b506040516000906080810167ffffffffffffffff8111828210171561063957610639610443565b60409081528451825260208086015190830152848101519082015260609384015193810193909352509092915050565b8881528760208201528660408201526bffffffffffffffffffffffff198616606082015284608082015261010060a082015260008451806101008401526106b8816101208501602089016105bf565b60c0830194909452506001600160a01b039190911660e0820152610120601f909201601f191601019695505050505050565b6000602082840312156106fc57600080fd5b8151801515811461070c57600080fd5b9392505050565b8082018082111561073457634e487b7160e01b600052601160045260246000fd5b9291505056fea2646970667358221220207bb0d9ee467d90eeb0ba934a17c283dd66402711dabecb876559300a07000664736f6c634300081c0033","linkReferences":{}},"methodIdentifiers":{"alignedServiceManager()":"f19cd882","candidateA()":"ff0bee6e","candidateB()":"54b976d0","candidateC()":"2da26d42","elfCommitment()":"2212d607","hasVoted(uint256)":"ecca031f","paymentServiceAddr()":"90a05f2e","submitVote(bytes32,bytes32,bytes32,bytes20,bytes32,bytes,uint256,bytes)":"b4604174"},"id":20}