{
  "abi": [
    {
      "type": "constructor",
      "inputs": [],
      "stateMutability": "nonpayable"
    },
    {
      "type": "function",
      "name": "addHash",
      "inputs": [
        {
          "name": "hash",
          "type": "bytes32",
          "internalType": "bytes32"
        }
      ],
      "outputs": [],
      "stateMutability": "nonpayable"
    },
    {
      "type": "function",
      "name": "executeNextHash",
      "inputs": [],
      "outputs": [],
      "stateMutability": "nonpayable"
    },
    {
      "type": "function",
      "name": "executedHashes",
      "inputs": [
        {
          "name": "",
          "type": "bytes32",
          "internalType": "bytes32"
        }
      ],
      "outputs": [
        {
          "name": "",
          "type": "bool",
          "internalType": "bool"
        }
      ],
      "stateMutability": "view"
    },
    {
      "type": "function",
      "name": "findHashIndex",
      "inputs": [
        {
          "name": "hash",
          "type": "bytes32",
          "internalType": "bytes32"
        }
      ],
      "outputs": [
        {
          "name": "",
          "type": "uint256",
          "internalType": "uint256"
        }
      ],
      "stateMutability": "view"
    },
    {
      "type": "function",
      "name": "getHashCount",
      "inputs": [],
      "outputs": [
        {
          "name": "",
          "type": "uint256",
          "internalType": "uint256"
        }
      ],
      "stateMutability": "view"
    },
    {
      "type": "function",
      "name": "getNextHash",
      "inputs": [],
      "outputs": [
        {
          "name": "",
          "type": "bytes32",
          "internalType": "bytes32"
        }
      ],
      "stateMutability": "view"
    },
    {
      "type": "function",
      "name": "getNextHashIndex",
      "inputs": [],
      "outputs": [
        {
          "name": "",
          "type": "uint256",
          "internalType": "uint256"
        }
      ],
      "stateMutability": "view"
    },
    {
      "type": "function",
      "name": "hashes",
      "inputs": [
        {
          "name": "",
          "type": "uint256",
          "internalType": "uint256"
        }
      ],
      "outputs": [
        {
          "name": "",
          "type": "bytes32",
          "internalType": "bytes32"
        }
      ],
      "stateMutability": "view"
    },
    {
      "type": "function",
      "name": "isHashExecuted",
      "inputs": [
        {
          "name": "hash",
          "type": "bytes32",
          "internalType": "bytes32"
        }
      ],
      "outputs": [
        {
          "name": "",
          "type": "bool",
          "internalType": "bool"
        }
      ],
      "stateMutability": "view"
    },
    {
      "type": "function",
      "name": "nextHashIndex",
      "inputs": [],
      "outputs": [
        {
          "name": "",
          "type": "uint256",
          "internalType": "uint256"
        }
      ],
      "stateMutability": "view"
    },
    {
      "type": "function",
      "name": "owner",
      "inputs": [],
      "outputs": [
        {
          "name": "",
          "type": "address",
          "internalType": "address"
        }
      ],
      "stateMutability": "view"
    },
    {
      "type": "function",
      "name": "revertHash",
      "inputs": [
        {
          "name": "hash",
          "type": "bytes32",
          "internalType": "bytes32"
        }
      ],
      "outputs": [],
      "stateMutability": "nonpayable"
    },
    {
      "type": "event",
      "name": "HashAdded",
      "inputs": [
        {
          "name": "hash",
          "type": "bytes32",
          "indexed": false,
          "internalType": "bytes32"
        }
      ],
      "anonymous": false
    },
    {
      "type": "event",
      "name": "HashExecuted",
      "inputs": [
        {
          "name": "hash",
          "type": "bytes32",
          "indexed": false,
          "internalType": "bytes32"
        }
      ],
      "anonymous": false
    },
    {
      "type": "event",
      "name": "HashReverted",
      "inputs": [
        {
          "name": "hash",
          "type": "bytes32",
          "indexed": false,
          "internalType": "bytes32"
        }
      ],
      "anonymous": false
    }
  ],
  "bytecode": {
    "object": "0x6080604052348015600e575f80fd5b50335f806101000a81548173ffffffffffffffffffffffffffffffffffffffff021916908373ffffffffffffffffffffffffffffffffffffffff1602179055505f600381905550610d1d806100625f395ff3fe608060405234801561000f575f80fd5b50600436106100b2575f3560e01c806383b3847a1161006f57806383b3847a146101785780638da5cb5b14610196578063a60f9f5f146101b4578063b8f7585b146101d0578063e620180514610200578063eb65db121461021e576100b2565b8063260d711e146100b657806343e08ad1146100e657806343e846a514610102578063501895ae1461012057806366d8cc0a146101505780637276a6151461015a575b5f80fd5b6100d060048036038101906100cb91906108a4565b61024e565b6040516100dd91906108e9565b60405180910390f35b61010060048036038101906100fb91906108a4565b61026b565b005b61010a61041c565b6040516101179190610911565b60405180910390f35b61013a6004803603810190610135919061095d565b61048f565b6040516101479190610911565b60405180910390f35b6101586104af565b005b610162610621565b60405161016f9190610997565b60405180910390f35b610180610627565b60405161018d9190610997565b60405180910390f35b61019e610633565b6040516101ab91906109ef565b60405180910390f35b6101ce60048036038101906101c991906108a4565b610656565b005b6101ea60048036038101906101e591906108a4565b6107b1565b6040516101f791906108e9565b60405180910390f35b6102086107d7565b6040516102159190610997565b60405180910390f35b610238600480360381019061023391906108a4565b6107e0565b6040516102459190610997565b60405180910390f35b6002602052805f5260405f205f915054906101000a900460ff1681565b5f8054906101000a900473ffffffffffffffffffffffffffffffffffffffff1673ffffffffffffffffffffffffffffffffffffffff163373ffffffffffffffffffffffffffffffffffffffff16146102f8576040517f08c379a00000000000000000000000000000000000000000000000000000000081526004016102ef90610a88565b60405180910390fd5b610301816107b1565b15610341576040517f08c379a000000000000000000000000000000000000000000000000000000000815260040161033890610af0565b60405180910390fd5b5f5b6001805490508110156103bb57816001828154811061036557610364610b0e565b5b905f5260205f200154036103ae576040517f08c379a00000000000000000000000000000000000000000000000000000000081526004016103a590610af0565b60405180910390fd5b8080600101915050610343565b50600181908060018154018082558091505060019003905f5260205f20015f90919091909150557f43af73c832d9fe061da0a995686f56bf3de033272274905119d6d7441fa1d89c816040516104119190610911565b60405180910390a150565b5f60018054905060035410610466576040517f08c379a000000000000000000000000000000000000000000000000000000000815260040161045d90610b85565b60405180910390fd5b5f60016003548154811061047d5761047c610b0e565b5b905f5260205f20015490508091505090565b6001818154811061049e575f80fd5b905f5260205f20015f915090505481565b5f8054906101000a900473ffffffffffffffffffffffffffffffffffffffff1673ffffffffffffffffffffffffffffffffffffffff163373ffffffffffffffffffffffffffffffffffffffff161461053c576040517f08c379a000000000000000000000000000000000000000000000000000000000815260040161053390610a88565b60405180910390fd5b60018054905060035410610585576040517f08c379a000000000000000000000000000000000000000000000000000000000815260040161057c90610b85565b60405180910390fd5b5f60016003548154811061059c5761059b610b0e565b5b905f5260205f2001549050600160025f8381526020019081526020015f205f6101000a81548160ff02191690831515021790555060035f8154809291906105e290610bd0565b91905055507f8c8e19e7e8e193118a05465d7676e82215052d3cb150628fbf598105dc2bb6ab816040516106169190610911565b60405180910390a150565b60035481565b5f600180549050905090565b5f8054906101000a900473ffffffffffffffffffffffffffffffffffffffff1681565b5f8054906101000a900473ffffffffffffffffffffffffffffffffffffffff1673ffffffffffffffffffffffffffffffffffffffff163373ffffffffffffffffffffffffffffffffffffffff16146106e3576040517f08c379a00000000000000000000000000000000000000000000000000000000081526004016106da90610a88565b60405180910390fd5b60025f8281526020019081526020015f205f9054906101000a900460ff16610740576040517f08c379a000000000000000000000000000000000000000000000000000000000815260040161073790610c61565b60405180910390fd5b5f60025f8381526020019081526020015f205f6101000a81548160ff021916908315150217905550610771816107e0565b6003819055507fd092e6d58528a0bc2d735d5e780a4a0c341baefc5c07027cf8b05593b396ec97816040516107a69190610911565b60405180910390a150565b5f60025f8381526020019081526020015f205f9054906101000a900460ff169050919050565b5f600354905090565b5f805f90505b60018054905081101561082c57826001828154811061080857610807610b0e565b5b905f5260205f2001540361081f5780915050610868565b80806001019150506107e6565b506040517f08c379a000000000000000000000000000000000000000000000000000000000815260040161085f90610cc9565b60405180910390fd5b919050565b5f80fd5b5f819050919050565b61088381610871565b811461088d575f80fd5b50565b5f8135905061089e8161087a565b92915050565b5f602082840312156108b9576108b861086d565b5b5f6108c684828501610890565b91505092915050565b5f8115159050919050565b6108e3816108cf565b82525050565b5f6020820190506108fc5f8301846108da565b92915050565b61090b81610871565b82525050565b5f6020820190506109245f830184610902565b92915050565b5f819050919050565b61093c8161092a565b8114610946575f80fd5b50565b5f8135905061095781610933565b92915050565b5f602082840312156109725761097161086d565b5b5f61097f84828501610949565b91505092915050565b6109918161092a565b82525050565b5f6020820190506109aa5f830184610988565b92915050565b5f73ffffffffffffffffffffffffffffffffffffffff82169050919050565b5f6109d9826109b0565b9050919050565b6109e9816109cf565b82525050565b5f602082019050610a025f8301846109e0565b92915050565b5f82825260208201905092915050565b7f4f6e6c79206f776e65722063616e2063616c6c20746869732066756e6374696f5f8201527f6e00000000000000000000000000000000000000000000000000000000000000602082015250565b5f610a72602183610a08565b9150610a7d82610a18565b604082019050919050565b5f6020820190508181035f830152610a9f81610a66565b9050919050565b7f4861736820616c726561647920657869737473000000000000000000000000005f82015250565b5f610ada601383610a08565b9150610ae582610aa6565b602082019050919050565b5f6020820190508181035f830152610b0781610ace565b9050919050565b7f4e487b71000000000000000000000000000000000000000000000000000000005f52603260045260245ffd5b7f4e6f206d6f72652068617368657320746f2065786563757465000000000000005f82015250565b5f610b6f601983610a08565b9150610b7a82610b3b565b602082019050919050565b5f6020820190508181035f830152610b9c81610b63565b9050919050565b7f4e487b71000000000000000000000000000000000000000000000000000000005f52601160045260245ffd5b5f610bda8261092a565b91507fffffffffffffffffffffffffffffffffffffffffffffffffffffffffffffffff8203610c0c57610c0b610ba3565b5b600182019050919050565b7f48617368206973206e6f742065786563757465640000000000000000000000005f82015250565b5f610c4b601483610a08565b9150610c5682610c17565b602082019050919050565b5f6020820190508181035f830152610c7881610c3f565b9050919050565b7f48617368206e6f7420666f756e640000000000000000000000000000000000005f82015250565b5f610cb3600e83610a08565b9150610cbe82610c7f565b602082019050919050565b5f6020820190508181035f830152610ce081610ca7565b905091905056fea2646970667358221220311b5922e500c6237bdf1fef1749ae68f3e219d433186412e51701f72773aa8a64736f6c63430008190033",
    "linkReferences": {}
  },
  "methodIdentifiers": {
    "addHash(bytes32)": "43e08ad1",
    "executeNextHash()": "66d8cc0a",
    "executedHashes(bytes32)": "260d711e",
    "findHashIndex(bytes32)": "eb65db12",
    "getHashCount()": "83b3847a",
    "getNextHash()": "43e846a5",
    "getNextHashIndex()": "e6201805",
    "hashes(uint256)": "501895ae",
    "isHashExecuted(bytes32)": "b8f7585b",
    "nextHashIndex()": "7276a615",
    "owner()": "8da5cb5b",
    "revertHash(bytes32)": "a60f9f5f"
  },
  "id": 19
}